:04130000CDEF09F034
:10130800E1CF21F0E2CF22F0D9CF23F0DACF24F0D9
:10131800F3CF25F0F4CF26F09EA001D001D017D04E
:1013280000017D2B070E00017D6501D001D003D09F
:101338007D6B010E7E6F74EC27F0A5EC27F0A7EC0F
:101348001FF0FC0ECF6E7B0ECE6E9E9013D0A3A81E
:1013580001D001D008D0A4A801D001D004D0DDEC80
:1013680027F0A49807D0A4AA01D001D003D05BEC41
:1013780027F0A49AE8EC22F026C0F4FF25C0F3FF7A
:1013880024C0DAFF23C0D9FF22C0E2FF21C0E1FF59
:061398001100E1EF25F059
:101400009F3F7D3F4E3F103FBF3E563ED13D293D61
:10141000593C5C3B2C3AC538243748353233E730E9
:101420006C2EE82B0E2940266F23A420EB1D4F1BAA
:10143000D5188016571459128610DE0E600D050C53
:10144000D00AB509643F203FC43E493EA83DD83C80
:10145000D23B8D3A0139293704359232D92FE52C08
:10146000C429862640230220DE1CE11914178014AB
:1014700026120710210E720CF50AA70981088007B1
:10148000A006DB0530059B0400000201BD6BBE6BAE
:10149000B46BAF6BB06BB16BB26B22EEB5F0080EF4
:1014A000DE6AE82EFDD722EE9FF0080EDE6AE82EF7
:1014B000FDD722EEA7F0080EDE6AE82EFDD7010167
:1014C0001B0502E1426B436B110542E10001872BD2
:1014D000020E8765020C876B862B010E866503D092
:1014E000866B0101116B02C1B5F201011351020DAE
:1014F000F3CFF1F01451040DF3500001F125010177
:1015000012250201B66F01010151020DF3500025B1
:101510000201B76F0001A351FF0B0201B86F000178
:10152000A451FF0B0201B96F25C2BDF226C2BEF263
:10153000BDC2BAF2BE51BB6FBC6B840E0001B66F68
:10154000100EB76F660EB86F170EB96F020EBDD1D1
:101550000001892B310E89654DD1896B010115057B
:10156000D8A4120018511911000176110201BD6FA3
:10157000BE6BE70EBD17BE6B00017651180B020162
:10158000B46F180E01011817191718510201B45D34
:1015900011E301011951185D04E3020119C19BF225
:1015A00003D0020118C19BF29C6B9BC299F29CC2B2
:1015B0009AF20FD0010119510201B45D03E319C180
:1015C0009DF202D0B4C29DF29E6B9DC299F29EC262
:1015D0009AF299C2B4F2B451BD13BD51E00BB46F8D
:1015E000B45107E0BD51060B02E0080E0FD01E0EED
:1015F0000DD00001F6AF03D0030E020107D00201A7
:10160000BD51060BB46FB451F0E1070EB56FBD517B
:10161000180BB46FD890B433D890B433D890B43397
:10162000BD51E00B02E0B42B01D0B46BB441E842F1
:10163000C00BB5130001755115E101010F5112E105
:10164000105110D0430E0BD0440E09D0470E07D0D6
:10165000460E05D0410E03D0420E01D0450E0201C8
:10166000B66F10D000017551010AECE0030AECE0FE
:10167000670AECE0030AECE0010AECE00F0AECE098
:10168000010AECE0050E0001A3250201BD6F000E6A
:101690000001A4210201BE6FBDC2ACF0BEC2ADF01C
:1016A0000001AF6B0A0EAE6F5DEC26F0ACC0BDF270
:1016B000ADC0BEF2BDC2B7F20201BE51B86F210E7D
:1016C0003F5D030E405904E3010E406F130E3F6F60
:1016D00022EE3FF0DECFF1F0DDCFF2F00001D89046
:1016E000F233F133D890F233F133F1C0BDF2F2C0EE
:1016F000BEF2BDC2BAF2010121EE09F0DECFF1F077
:10170000DDCFF2F00B510001F12701010C51000176
:10171000F22301010D510001F1250201BD6F01010C
:101720000E510001F2210201BE6FD8807D0EBE5B1A
:10173000BDC2ACF0BEC2ADF00001AF6B140EAE6F17
:101740005DEC26F0ACC0BDF2ADC0BEF2BDC2BBF2D6
:1017500002013FC2AFF240C2B0F2B16BB26B020EF7
:101760000001B96FAF0EB86FBDC2BAF0BEC2BBF018
:10177000BC6BBD6B82EC26F0AFC2B8F0B0C2B9F062
:10178000B1C2BAF0B2C2BBF0A3C0BCF0A4C0BDF0FD
:10179000BE6BBF6B3DEC25F0B8C0AFF2B9C0B0F284
:1017A000BAC0B1F2BBC0B2F2AFC2BDF2B0C2BEF2BB
:1017B000BDC2B9F2A75105E09CD905E3BE6B780E16
:1017C00001D0A0D9BD6FBDC2BCF288D981D9BD6F8F
:1017D0002CEC1FF00001882B010E8865010C886B32
:1017E00001010B6B0C6B0D6B0E6B0F6B106B186BA1
:1017F000196B12000101424B432B140E425D000E87
:10180000435976E3426B436B76C0B5F20001A751B2
:1018100005E06FD905E3BE6B780E01D073D9BD6FBB
:10182000BDC2B6F2210E3F5D030E405904E3010E26
:10183000406F130E3F6FD8903F35BD6F4035BE6F80
:10184000BDC2B7F2BE51B86FAD0E255D0D0E265963
:1018500003E3266BC80E256F25C2BDF226C2BEF279
:10186000BE51BD1108E0150EBD5D000EBE5903E26C
:10187000BE6B020EBD6FD890BD350001F16F020145
:10188000BE350001F26F000EF1250201BD6F7D0E25
:101890000001F2210201BE6F000165A704D07D0E98
:1018A0000201BE6FBD6BBDC209F1BEC20AF1BDC26D
:1018B000B9F20201BE51BA6F75C0BBF2660EBC6FC1
:1018C0000CD00CD902D0850E39D602D9BD6F2CEFC1
:1018D0001FF0860E33D6870E31D601011551F1E087
:1018E000010AF1E0030AF5E0010AD8A41200F3D7D7
:1018F00000017B5101E1ACD07B6B7A677ED07967C8
:1019000040D0010E0201B56F0001A351FF0B02018F
:10191000B66F0001A451FF0B0201B76FB1C1B8F25D
:101920000101B2510201B96FA7C0BAF216C2BBF2EF
:1019300030C2BCF2020E9F6F3FC2A0F24051A16FB5
:1019400025C2A2F22651A36F64C0A4F20001655122
:101950000201A56FA66B030EA76FF4C0A8F20001E9
:10196000F5510201A96F8FC1AAF201019051020144
:10197000AB6F91C1ACF2010192510201AD6FAE6B40
:1019800040D079053EE1040E0201B56F97C1B6F271
:10199000010198510201B76F99C1B8F201019A5142
:1019A0000201B96F93C1BAF2010194510201BB6FF8
:1019B000050E9F6F95C1A0F2010196510201A16F22
:1019C000A8C0A2F2B3C1A3F222C1A4F223C1A5F21E
:1019D000B0C1A6F2060EA76FA5C1A8F2A6C1A9F2D2
:1019E000ABC1AAF2ACC1ABF2ADC1ACF20101AE51D8
:1019F0000201AD6FAFC1AEF204D07AC0B5F279C0CA
:101A0000B6F254D82CEC1FF060C0B6F061C0B7F04D
:101A100062C0B8F063C0B9F0020E0001BB6F9F0E48
:101A2000BA6F080EBC6FF60EBD6F2CEC1FF060C0D5
:101A3000B6F061C0B7F062C0B8F063C0B9F0020E92
:101A40000001BB6FA70EBA6F080EBC6FF50E3ED734
:101A50006D0520E18A2B090E00018A65090C8A6B4D
:101A6000F96705D06D6B8A6B140EF96F01D0F90719
:101A70001FC1B5F220C1B6F221C1B7F2F9C1B8F267
:101A8000FAC1B9F2FBC1BAF211D82CEC1FF0000177
:101A90008A6B120001011C05D8A412001EC1C3F0FC
:101AA0000001C56BC46B010E7BEF13F060C0B6F094
:101AB00061C0B7F062C0B8F063C0B9F0020E0001B7
:101AC000BB6FB50EBA6F080EBC6FF70EBD6FF70C8B
:101AD000BB6FB50EBA6F080EBC6FF70C2CC1B6F019
:101AE0002DC1B7F02EC1B8F02FC1B9F0020E000120
:101AF00012000201A7C0BDF2BE6B780EBD5D000EE4
:101B0000BE5912000201BE6B410C02019B6B9D6B22
:101B10009C6B22EEA2F0080EDE6AE82EFDD70001D3
:101B200085510EE00101404B412BD10E405D070E67
:101B30004159D8A01200406B416B0001856B120027
:101B400071AA71B802D071A605D00E01426B416B2B
:101B5000716A12003350D8B412000101406B416B1E
:101B60000001856BF29E330633500F0DF3CFF1F079
:101B7000F12B4E0EF125D96EDA6A0201020EDA223D
:101B8000DECF9EF2DECF9FF2DECFA0F2DECFA1F25B
:101B900033500F0D4E0EF324D96EDA6A020EDA229C
:101BA000DF509C6FAA6B21D033500F0DAAC2F1F009
:101BB000050E0001F1274E0EF26F020EF36FF15188
:101BC000F227E86AF1BFE868F323F350F225D96EF3
:101BD000000EF321DA6E0201A20EAA25E16EE26A7E
:101BE000020EE222DFCFE7FFAA2B9C51AA5DDCE3C5
:101BF000F28E01012B510201A1190EE101012A51BE
:101C00000201A01909E10101295102019F1904E112
:101C10000101285102019E1929E1010E02019A6F6A
:101C2000EC0E996FAA6B0AD0B2D9AA519925E16E30
:101C3000000E9A21E26EDFCFE7FFAA2B9C51AA5D2E
:101C4000F3E30001772B776702D0010E776FF693ED
:101C50000101EC51030B02019D6F9D0503E10001A1
:101C6000F69104D09D6702D00001F68101011505AF
:101C70003CE10201A151170A860E90D9D8B4A019EF
:101C800017E10101044B052B0551041103E1056B1C
:101C9000010E046F010E006F6BD90B6F830E0001F4
:101CA000F22101010C6FA8C20FF1A2C218F11DD0E0
:101CB000A151170A870E72D9D8B4A01916E10101F3
:101CC000064B072B0751061103E1076B010E066F48
:101CD000010E016F4DD90D6F830E0001F22101013C
:101CE0000E6FA8C210F1A2C219F101012751020121
:101CF000A1190EE1010126510201A01909E101011A
:101D0000255102019F1904E10101245102019E198C
:101D1000D8A412000101406B416B0001856B782B48
:101D2000786702D0010E786F0201A251EF0A25E117
:101D3000A351AA0A22E1A451120A1FE1A551340AB3
:101D40001CE1A651560A19E1A751780A16E1AA6BBF
:101D50001ED9DF509B1BAA2B070EAA65F9D79B67DC
:101D60000CD0420E0101A76F540EA86F440EA96F4C
:101D70004C0EAA6F010E00017B6FA2C27AF0020125
:101D8000A751EF0AD8A41200A851450AD8A41200FE
:101D9000A951670AD8A41200A451AC6FA351AB6F2C
:101DA000010E00017B6FACD0ABC279F0A4C29DF2F2
:101DB00002019D0503E10001F68912000001F69978
:101DC0001200AA0E0201AB5D000EAC590DE34B0EE2
:101DD000AB5D010EAC5908E2ABC28FF1ACC290F121
:101DE000010E0001796F010C0001796B12000201F4
:101DF000AC51AB11F9E0C50EAB5D090EAC59F4E284
:101E0000ABC291F1ACC292F1EBD7010E796F020136
:101E1000AB05AC1103E10001F6911200AC51AB111E
:101E2000E3E10001F6811200010E796FABC297F178
:101E3000ACC298F1010C010E796FABC299F1ACC242
:101E40009AF1010C010E796FABC293F1ACC294F11F
:101E5000010C010E796FABC295F1ACC296F1010C89
:101E6000010E796FABC29BF1ACC29CF1010CABC20D
:101E7000ACF0ACC2ADF07A511DEC18F0796F1200E5
:101E8000010E6D6F7B6B6E671200010E746F796FC0
:101E9000030E736F030C7B6B7AC0C3F0020E00015C
:101EA000C56FA20EC46F000E7BEF13F0010E796FA9
:101EB000A3C2A5F1A4C2A6F1A5C2ABF1A6C2ACF122
:101EC000010C010E796FABC2ADF1ACC2AEF1A5C28F
:101ED000AFF1A6C2B0F1010C010E796FABC2B1F146
:101EE000ACC2B2F1010C7B6BABC2B3F11200010EBC
:101EF000796F0201AB05AC11D8B4ABC2B4F11200DA
:101F00007A5101E151D7010A01E15BD7030A01E1EE
:101F10006ED7010A01E179D7070A86E0010A8BE052
:101F2000030A90E0010A95E00F0A9AE0010A9FE097
:101F3000030A9DE0010A9BE0070A99E0010A97E085
:101F4000030A95E0010A93E01F0A9AE0010AA3E060
:101F5000030AA1E0010A9FE0070AA8E0010AB1E034
:101F6000030ABAE0010ABFE00F0AD8A41200BFD7E3
:101F70000201A651A7C2F1F00001F26BF1C0F2F02C
:101F8000F16BF127000EF223F12501011200A20EE0
:101F9000AA25D96EDA6A020EDA221200D8B49E1986
:101FA000100ED8B49F19660C0001EC6BED6BE66B5C
:101FB000E76BE86BE96B7205D8A41200726B22EE36
:101FC00044F0DECFE4F0DDCFE5F0CED9000EC76BF4
:101FD0001EEC15F0C5C0E8F0C6C0E9F0E951E81103
:101FE0000BE0E8C0ACF0E9C0ADF0AF6B0A0EAE6F2D
:101FF0005DEC26F0D0D902D0E86BE96BE851020124
:1020000046270001E95102014723000E48234923D6
:1020100022EE10F0DECFE4F0DDCFE5F00001A4D930
:10202000C76B1EEC15F0C5C0E8F0C6C0E9F0E95179
:10203000E8110BE0E8C0ACF0E9C0ADF0AF6B0A0E00
:10204000AE6F5DEC26F0A7D902D0E86BE96BE851E2
:10205000020112270001E95102011323000E14238B
:10206000152322EE2AF0DECFE4F0DDCFE5F000010B
:102070007BD9010EC76F1EEC15F0C5C0E8F0C6C0D5
:10208000E9F0E951E8110BE0E8C0ACF0E9C0ADF0CF
:10209000AF6B0A0EAE6F5DEC26F07DD902D0E86B17
:1020A000E96BE85102012C270001E95102012D23BF
:1020B000000E2E232F2337C2ECF038C2EDF00001C2
:1020C000ECC0ACF0EDC0ADF0AE6BAF6B5E0EB06FC0
:1020D000010EB16F000EB26BB36B37EC26F0110E30
:1020E00002D0F0EC19F0E82EFCD7ACC0E6F0ADC0A1
:1020F000E7F0E651020139270001E75102013A23D6
:10210000000E3B233C231DC2ECF01EC2EDF000018B
:10211000ECC0ACF0EDC0ADF0AE6BAF6BA00EB06F2D
:102120000F0EB16F000EB26BB36B37EC26F0110ED1
:1021300002D0F0EC19F0E82EFCD7ACC0ECF0ADC04A
:10214000EDF0EC5102011F270001ED5102012023A7
:10215000000E2123222303C2ECF004C2EDF00001A3
:10216000ECC0ACF0EDC0ADF0AE6BAF6B320EB06F4B
:10217000000EB16BB26BB36B37EC26F0110E02D0D0
:10218000F0EC19F0E82EFCD7ACC0ECF0ADC0EDF0EF
:10219000EC51020105270001ED5102010623000E5A
:1021A000072308230001EA6BEB6BEDD80001E4255F
:1021B000D96EDA6A020EDA22EA510D0DF3CFE5F09C
:1021C000090EE527000EE525E16EE26A020EE22225
:1021D000DECFE6FFDDCFE5FFD6D8E425D96EDA6A9B
:1021E000020EDA22DE6ADE6ADE6ADD6ADD52DD5266
:1021F000EA4BEB2B060EEA5D000EEB59D6E33DC22F
:10220000E6F03EC2E7F09EC1EAF0EB6B01019D05EE
:1022100012E10001E651EA5DE751EB5904E30201E6
:102220003F6B406B12D0EA51E65D02013F6F000147
:10223000EB51E75908D00001EA51E62502013F6F52
:102240000001EB51E7210201406F23C2ECF024C2F0
:10225000EDF00001A0C1EAF0EB6B01019F0512E176
:102260000001EC51EA5DED51EB5904E30201256BED
:10227000266B12D0EA51EC5D0201256F0001EB5193
:10228000ED5908D00001EA51EC250201256F00014B
:10229000EB51ED210201266F23C225F224C226F262
:1022A000E30E255D040E265906E35A0E2527000E7F
:1022B0002621266F12007F0E255D040E265906E3A7
:1022C000550E2527000E2621266F1200E90E255DEA
:1022D000030E265906E3500E2527000E2621266FF1
:1022E0001200850E255D030E265906E3460E2527AE
:1022F000000E2621266F1200EF0E255D020E2659D4
:1023000006E33C0E2527000E2621266F12004F0EF5
:10231000255D020E265906E3320E2527000E2621E2
:10232000266F1200C30E255D010E265906E3230E0B
:102330002527000E2621266F12002D0E255D010E89
:10234000265906E3140E2527000E2621266F1200BB
:10235000970E255D000E2659D8A012000A0E2527DB
:10236000000E2621266F1200D890E533E433D89072
:10237000E533E433E4C0ECF0E5C0EDF0ECC0C5F0CB
:10238000EDC0C6F01200EA510D0DF3CFE4F0050EDA
:10239000E427000E1200ACC0E8F0ADC0E9F0120076
:1023A0000001B26BB36BB46BB56B0101564B572B8D
:1023B0003D0E565D000E5759D8A01200576B3D0ECA
:1023C000566F16C2B0F017C2B1F00001A7C0B2F04C
:1023D000B36B4AC2B4F04BC2B5F065A925D091C128
:1023E000F4F092C1F5F07F0EB05D000EB15918E225
:1023F000870EB25D000EB35913E2820EB45D000E7B
:10240000B5590EE20101584B592BF50E585D010EDE
:102410005959D8A01200586B596B000165991200E8
:102420000101586B596B1200890EB05D000EB15955
:102430000AE29B0EB25D000EB35905E2960EB45D42
:10244000000EB5590DE301015A4B5B2BF50E5A5D99
:10245000010E5B5908E35A6B5B6B00016589120042
:1024600001015A6B5B6B820E0001B05D000EB15929
:1024700005E291C15EF192C15FF12DD0820EB05D97
:10248000000EB1590BE3870EB05D000EB15906E2A4
:10249000060E010191255E6FFF0E1BD0870EB05D09
:1024A000000EB15907E38C0EB05D000EB15902E287
:1024B000700E0BD08C0EB05D000EB159DAE3910EA8
:1024C000B05D000EB159D5E20C0E010191255E6F91
:1024D000FE0E92215F6F8C0E0001B25D000EB359AB
:1024E00005E291C15CF192C15DF12DD08C0EB25D1F
:1024F000000EB3590BE3910EB25D000EB35906E224
:10250000060E010191255C6FFF0E1BD0910EB25D8E
:10251000000EB35907E3960EB25D000EB35902E206
:10252000700E0BD0960EB25D000EB359DAE39B0E1F
:10253000B25D000EB359D5E20C0E010191255C6F1E
:10254000FE0E92215D6F870E0001B45D000EB5593D
:1025500005E291C166F092C167F031D0870EB45D9B
:10256000000EB5590CE38C0EB45D000EB55907E2B0
:10257000060E010191250001666FFF0E1CD08C0E26
:10258000B45D000EB55907E3910EB45D000EB55968
:1025900002E2700E0BD0910EB45D000EB559D9E376
:1025A000960EB45D000EB559D4E20C0E01019125D2
:1025B0000001666FFE0E010192210001676F0101AB
:1025C0005C515E5D5D515F5917E300016651010189
:1025D0005C5D0001675101015D5905E366C0ACF027
:1025E00067C0ADF004D05CC1ACF05DC1ADF0ACC073
:1025F0002FF0ADC030F016D00001665101015E5DD4
:102600000001675101015F5905E366C0AEF067C084
:10261000AFF004D05EC1AEF05FC1AFF0AEC02FF03E
:10262000AFC030F0826716D0010E826F91C15EF1AB
:1026300092C15FF191C15CF192C15DF191C166F00F
:1026400092C167F091C12FF092C130F02FC031F0EC
:1026500030C032F03050321802E12F50311822E0F1
:1026600031502F5C325030580FE2544B552BF40E42
:102670000101545D010E555917E3546B556B2FC082
:1026800031F030C032F010D02F50315C3050325821
:102690000BE2544B552B700E0101545D170E55592A
:1026A000ECE202D0546B556B9151315C925132582F
:1026B00005E391C1F4F092C1F5F004D031C0F4F01B
:1026C00032C0F5F000050AE1140E0001F45D050EBC
:1026D000F55904E3050EF56F140EF46F01019151E5
:1026E0000001F45D010192510001F55902E2658B90
:1026F0001200659B1200E8CFE0F0D46BDF6BD56B66
:10270000D66BD06BD16BD26BD36BED6BEE6B20EED7
:10271000E1F0080EDE6AE82EFDD720EED7F0080EB5
:10272000DE6AE82EFDD720EEC8F0080EDE6AE82E3D
:10273000FDD7C3C0D4F001011D6B000165AB02D011
:1027400001011D81000164AB02D001011D83000164
:1027500064B102D064A302D001011D85000164B5FB
:1027600002D064A702D001011D87000165B302D029
:1027700064A902D001011D890001E0677FD0C4C0B7
:10278000EFF0C5C0F0F071D001011B671200010E1F
:102790001B6F00014BD901011A6F12000101155185
:1027A00002E0010E1B6F000120EE01F0EF51D9266F
:1027B000F051DA2201011A51DF6206D0010E1C6FBE
:1027C000000134D901011E6F000128D9DF6F010E0D
:1027D000DF17DF0502E1F68901D0F6991FD9ED6F09
:1027E000EE6BD890EE31C76FED31C66F010EC61596
:1027F000ED6FEE6BED05EE1102E1F68B1200F69B2C
:10280000120020EE01F0EF51D926F051DA22DF500C
:10281000C66F04D9EE6FC651ED6FAA0EED5D000EC6
:10282000EE5909E34B0EED5D010EEE5904E2EDC0E9
:102830008FF1EEC090F1FAD8C66F20EE04F0EF51A0
:10284000D926F051DA22DF50EE6FC651ED6FEE114E
:10285000D8B41200C50EED5D090EEE59D8B01200C5
:10286000EDC091F1EEC092F11200D451110A8CE04A
:10287000030A94E0010AD8A41200C3D7E005D8A443
:10288000120001011E675DD00001E16B3FC2E2F062
:10289000020140510001E36F25C2E4F0020126511C
:1028A0000001E56F65A702D0E26BE36BF4C0E6F0D0
:1028B000F551E76FA3C0D0F0A4C0D1F0D26BD36BB9
:1028C000D0C0ACF0D1C0ADF0D2C0AEF0D3C0AFF04C
:1028D000CD0EB06F000EB16BB26BB36B37EC26F060
:1028E0000C0E02D0F0EC19F0E82EFCD7ACC0D5F0FD
:1028F000ADC0D6F0D890D633D533D890D633D533B3
:10290000D5C0E8F0010ED76FA7C0D8F04AC2D9F001
:102910001DC1DAF030C2DBF03AC1DCF001013B51FD
:102920000001DD6F020EC86F8FC1C9F00101905127
:102930000001CA6F91C1CBF0010192510001CC6F2F
:1029400024D01E0522E1030E0001E16FA5C1E2F0D3
:10295000A6C1E3F0ABC1E4F0ACC1E5F0ADC1E6F077
:102960000101AE510001E76FAFC1E8F0040ED76F6F
:10297000B0C1D8F0B1C1D9F00101B2510001DA6F94
:10298000B3C1DBF0050EC86FC96B01011A5100011C
:102990006025E96F000E6121EA6F000E6221EB6F86
:1029A000000E6321EC6FE9C0B6F0EAC0B7F0EBC0EF
:1029B000B8F0ECC0B9F0000EBB6FE10EBA6F080EB4
:1029C000BC6FF70EBD6F2CEC1FF0E9C0B6F0EAC08B
:1029D000B7F0EBC0B8F0ECC0B9F00001000EBB6F6F
:1029E000D70EBA6F080EBC6FF60EBD6F2CEC1FF041
:1029F000E9C0B6F0EAC0B7F0EBC0B8F0ECC0B9F08F
:102A00000001000EBB6FC80EBA6F080EBC6FF50E4A
:102A1000BD6F2CEC1FF001011C6B120020EE02F0C8
:102A2000EF51D926F051DA22DF50120020EE03F0E8
:102A3000EF51D926F051DA22DF501200DE6BDF6B46
:102A4000DC6BDD6BD96BDA6BDB6BD36BD46BD56B6B
:102A5000D66BD76BD86BE16BC7C0E1F0E16702D0F2
:102A6000000E03D0E10502E1440EE06FE0C0F6FF86
:102A7000140EF76E0900F5CFC8F00900F5CFC9F0C4
:102A8000C551C85DC651C95903E2E26BE36B32D050
:102A9000E0C0C8F0420EC827F9D8C951C55DCA5177
:102AA000C65904E2E36B220EE26F24D0E26BE36BC3
:102AB000E251020DE051F324C86FE8D8C551C95D59
:102AC000C651CA5910E3E251020DE051F324C86F18
:102AD000020EC827DBD8C551C95DC651CA5903E2E9
:102AE000E24BE32B07D0E24BE32B210EE25D000E1D
:102AF000E359DEE3E2C0D9F0C5C0DEF0C6C0DFF0C6
:102B0000E351E21103E1DC6BDD6BBBD0E251220A41
:102B1000E3115AE1E16727D0200EB06F030EB16FC9
:102B2000B26BB36B000EC86F420EC827AFD8DE5130
:102B3000C95DAC6FDF51CA59F9D837EC26F0ACC08B
:102B4000B8F0ADC0B9F0AEC0BAF0AFC0BBF0000E87
:102B5000DFD8000EC3D83DEC25F0050E01D0F9D822
:102B6000E82EFDD728D0E1052AE1200EB06F030E34
:102B7000B16FB26BB36B440EC86F420EC82786D8D4
:102B8000DE51C95DAC6FDF51CA59D0D837EC26F0A1
:102B9000ACC0B8F0ADC0B9F0AEC0BAF0AFC0BBF0D9
:102BA000440EB6D8440E9AD83DEC25F0050E01D05F
:102BB000D0D8E82EFDD7B8C0DCF0B9C0DDF0720E79
:102BC000DC27060EDD235DD0E16712D0E251020D55
:102BD000F3CFC8F0FE0EC827C851000F62D837ECFB
:102BE00026F0ABD8000FC86F51D8B9D8000F13D05A
:102BF000E10522E1E251020DF3CFC8F0FE0EC82735
:102C0000C851440F4ED837EC26F097D8440FC86F00
:102C10003DD8A5D8440FCC6FCCC0F6FF140EF76E8C
:102C20000900F5CFCDF00900F5CFCEF0C951CD5D4B
:102C3000DA6FCA51CE59DB6FD5C0B8F0D6C0B9F043
:102C4000D7C0BAF0D8C0BBF0DAC0BCF0DBC0BDF072
:102C5000BE6BBF6B3DEC25F0050E01D07AD8E82E97
:102C6000FDD7B8C0D3F0B9C0D4F0D951320DD3518B
:102C7000F326D451F422CE0EF324DC6FFF0EF420A1
:102C8000DD6FDCC0C5F0DDC0C6F01200C8C0F6FFC5
:102C9000140EF76E0900F5CFC9F00900F5CFCAF0A0
:102CA0001200C96FC9C0F6FF140EF76E0900F5CF08
:102CB000CAF00900F5CFCBF0DE51CA5DAC6FDF5131
:102CC000CB59AD6FAE6BD8A0AE07AE51AF6F200E33
:102CD000B06F030EB16FB26BB36B000CCE6F400ED2
:102CE000CE27CEC0F6FF140EF76E0900F5CFCFF059
:102CF0000900F5CFD0F0CC51CF5DD16FCD51D05977
:102D0000D26FD1C0BCF0D2C0BDF0BE6BBF6B1200A1
:102D1000CB6F420ECB27CBC0F6FF140EF76E090027
:102D2000F5CFCCF00900F5CFCDF01200AD6FAE6B52
:102D3000D8A0AE07AE51AF6F1200ACC0D5F0ADC099
:102D4000D6F0AEC0D7F0AFC0D8F0E251020DF350CC
:102D50001200D890BB33BA33B933B8331200E25102
:102D6000020DF3CFCBF0FE0ECB27CB5112000001AA
:102D7000C06BC16BC26BC76BC86BCA6BCB6BC36BD1
:102D8000C46BC56BC66B0101126702D08B9201D078
:102D9000086B000164A364B10BD064A764B508D0CC
:102DA00065A3F6B105D065A965A502D070670FD0FF
:102DB000716B276A286A686B696B0F01486BCF0ECD
:102DC0004717000165878B9A640EA26F640CA22BD3
:102DD000640E0001A26502D0A26B8B7A01011ED99C
:102DE000D8B4DF1803E13404D8A412000001F6AD12
:102DF00070D08FC1C3F090C1C4F0C56BC66B000E1C
:102E0000B96FC30EB86F060EBA6F000EBB6BBC6B0A
:102E1000BD6B82EC26F0C3C0ACF0C4C0ADF0C5C041
:102E2000AEF0C6C0AFF0CD0EB06F000EB16BB26B9E
:102E3000B36B37EC26F00C0E02D0F0EC19F0E82E54
:102E4000FCD7ACC0CAF0ADC0CBF02750CA5D28504B
:102E5000CB590CE3130EAD6F880EAC6FCAC0AEF049
:102E6000CBC0AFF05DEC26F0AC5101D0020EA16FEB
:102E7000A151A02B0001A05D4CE3A06B27500101E4
:102E80008F5D2850905904E22706D8A028060CD060
:102E90008F51275C9051285803E2274A282A04D0F2
:102EA0008FC127F090C128F08F51275C905128588E
:102EB00002E2ACD807D08F51275C0001CA6F010134
:102EC00090512858B3D825E28FC127F090C128F03F
:102ED00020D0275001018F5D2850905904E2FE0E4A
:102EE0002726FF0E08D08F51275C9051285805E205
:102EF000020E2726000E282204D08FC127F090C191
:102F000028F08F51275C90512858D5E27FD88ED871
:102F1000DBE384D8D8B4DF18D8A4340429E1010E47
:102F20000001716F346A8FC127F090C128F0A2C1EF
:102F3000C9F0A1C1C0F0C06706D0C9512724C76F2E
:102F4000000E282013D0C9C0BEF0BF6B2750BE5D55
:102F50002850BF5905E38FC1C7F090C1C8F00CD00D
:102F6000C951275CC76F2850D8A02804C86F04D067
:102F700027C0C7F028C0C8F04B0E0001C75D010E86
:102F8000C8591BE2100EC725BE6F000EC821BF6FC7
:102F9000BEC0ACF0BFC0ADF0AE6BAF6B6A0E0AEC5A
:102FA0001AF037EC26F00A0E02D0F0EC19F0E82EF9
:102FB000FCD7ACC0C1F0ADC0C2F0240EC15D030EA1
:102FC000C259D8B01200C1C068F0C2C069F068C070
:102FD000BEF069C0BFF0D890BF33BE33D890BF33C6
:102FE000BE33BE510F01486F68C0BEF0030E000132
:102FF000BE17BE3BF00EBE170F014751CF0B0001AD
:10300000BE110F01476F00016597120027508F5DB9
:103010000001CA6F285001019059120021EE8FF073
:10302000DE522850DD1827C0E8FF12000001CB6FE8
:10303000040ECA5D000ECB591200E8CFB0F0B76B9A
:10304000B86BB16BB56BB66BB26BB0C0B1F0ACC066
:10305000B7F0ADC0B8F0ECD0010E746F736FB7C0AD
:1030600038F1B8C039F1010EB26FF5D0010E746FAE
:10307000020EF4D78FC1B3F090C1B4F0B351B75D75
:10308000B451B85902E2F9D801D0F1D8B66F640E44
:10309000B55D000EB65902E3B26BDDD0010EB26F22
:1030A000346EB751B35DB851B45920E30101A16743
:1030B00005D0A16BA2510001B5250AD0A10501E000
:1030C000CAD0CCD807E20101A16BA2510001B55DC5
:1030D00001010AD0C3D801E2BED0010E0101A16FE7
:1030E0000001B5510101A25DA26FB5D00101A1059A
:1030F00003E1010EA16FDED7A167ADD0A2C1AEF092
:103100000001AF6BB551AE5DB651AF5904E2010E8F
:103110000101A16FDAD7A2D801E29DD00101A16B14
:10312000DFD73DC2B3F03EC2B4F0B351B75DB45186
:10313000B85902E2A2D801D09AD8B66F640EB55D34
:10314000000EB659A9E29FD804E3010E01019D6F5C
:1031500002D001019D6BB5C09EF17DD023C2B3F0BA
:1031600024C2B4F0B351B75DB451B85902E285D866
:1031700001D07DD8B66FFA0EB55D000EB6598CE25F
:1031800082D804E3010E01019F6F02D001019F6B01
:10319000B5C0A0F160D0010EB26FB705B8115BE009
:1031A000B751020AB81157E0B751030AB81106E146
:1031B0000101A16BA26B010E346E4DD0B751040A10
:1031C000B81104E101019D6B9E6B45D0B751050A12
:1031D000B81141E0B751060AB81104E101019F6B33
:1031E000A06B39D0B751070AB8110AE101019D6BF4
:1031F0009E6B9F6BA06BA16BA26BA36BA46BDBD7C9
:10320000B751080AB8110CE10101A56BA66BAB6BB5
:10321000AC6BAD6BAE6BAF6BB06BB16BB26B1BD00D
:10322000B751090AB81101E037D70101B36B13D0C8
:10323000B151090A01E110D7030A01E117D7010AC8
:1032400001E118D7070A01E16CD7010A04E0030A7B
:1032500085E0010AA0E00001B2511200A2C1AEF067
:103260000001AF6BB551AE5DB651AF591200B3510D
:10327000B75DB56FB451B8591200B751B35DB56FB2
:10328000B851B4591200010EB26FB751B35DB851C5
:10329000B45912000001BC6BBD6B65A729D03F6A11
:1032A00001014A6B4B6BF4C0BAF0F5C0BBF00A0EDB
:1032B0000001BA25B86F000EBB21B2D8ABD837ECED
:1032C00026F00D0E01D08CD8E82EFDD7ACC0BCF096
:1032D000ADC0BDF0BCC02BF0BDC02CF02BC0B8F011
:1032E0002CC0B9F083D86F6B01014C6B4D6B120091
:1032F00001014C4B4D2BF60E4C5D010E4D5904E374
:10330000070E4D6FD10E4C6F0001F55101014B19A5
:1033100004E10001F45101014A1902E13F664ED077
:103320003F6608D0010E3F6E91C12DF092C12EF084
:10333000000120D000018F2B010E8F651CD08F6BF8
:103340002D50F45D2E50F55904E22D06D8A02E061E
:1033500012D0F4512D5CF5512E5803E22D4A2E2A3D
:103360000AD0F4C02DF0F5C02EF0F4C04AF1F5C03B
:103370004BF1010E6F6F2E502D1017E0C50E2D5C16
:10338000090E2E5812E20A0E2D24B86F000E2E20C0
:1033900047D840D837EC26F00D0E01D021D8E82EC2
:1033A000FDD7ACC0BCF0ADC0BDF0240EBC5D030EBB
:1033B000BD5904E2BCC02BF0BDC02CF02C50010163
:1033C000491902E12B504819D8B412002BC048F11A
:1033D0002CC049F12BC0B8F02CC0B9F0000106D0C8
:1033E000D890AF33AE33AD33AC331200D890B9338D
:1033F000B833D890B933B833B851BC6E2BC0B8F0DD
:10340000030EB817B83BF00EB817BB50CF0BB8116E
:10341000BB6E1200B06F030EB16FB26BB36B000CDA
:10342000B96FB8C0ACF0B9C0ADF0AE6BAF6B360CD5
:103430000001F6AF13D00101506B516B0001926B8C
:1034400001014E6B4F6B416A526B536B0F01516B15
:10345000CF0E5017406A0001916B120020EEA7F0CA
:10346000280EDF6406D0290E0201305D000E3159AE
:1034700009E21D0E406404D0010E0001916F08D0D6
:10348000402A06D0406603D00001916B01D040066F
:103490000001910508E10101506B516B0F01516B67
:1034A000CF0E5017CF0C0101504B512B920E505D97
:1034B000010E5159F3E3010E516F910E506F00014F
:1034C000A7C0ACF0AD6BAC510201165D0001AD516F
:1034D0000201175905E316C2AEF017C2AFF004D0CF
:1034E0000001A7C0AEF0AF6B5A0E0001AE5D000E3A
:1034F000AF5902E2366A16D05F0EAE5D000EAF59CC
:1035000002E2010E0ED0640EAE5D000EAF5902E273
:10351000020E07D0690EAE5D000EAF59030ED8B093
:10352000040E366E415036180BE00101524B532BFE
:10353000F40E525D010E535906E336C041F003D03C
:103540000101526B536B416605D00F01516BCF0ED9
:10355000501720D0410404E13C0E0F01516FF7D702
:103560004150020A07E1640E0F01516F5051CF0B19
:10357000100909D04150030A08E1960E0F01516F5E
:103580005051CF0B2009506F05D04150040A02E181
:10359000C50EF4D70001926712003C0E0F01516F67
:1035A000CF0E501701014E4B4F2BF50E4E5D010E05
:1035B0004F59D8A012004E6B4F6B010E0001926F55
:1035C000010C0001B46BB56BB66BB76BC90EA35D94
:1035D000000EA4590EE20101856B666B676B666B8A
:1035E000676B626B636B0001956B946B6491649382
:1035F00012000B0E0101852B856101D00B0C0B0E07
:10360000856F97C1B8F098C1B9F099C1B4F00001C5
:103610009AC1B5F0B66BB76BD00E0101625D070EB3
:10362000635937E30001950521E1946B0101646B57
:10363000656B500E0001B825AC6F000EB921AD6F5F
:10364000A351AC5DA451AD590DE20101664B672B4E
:10365000330E665D000E67591EE3666B676B0001F3
:10366000956B19D00101666B676B15D0A351B85DDE
:10367000A451B959F7E30101664B672B650E665DEE
:10368000000E675908E3666B676B010E0001956FCA
:1036900002D0624B632B000194052CE1956B010174
:1036A000666B676B00014ED8CE0EB425B06FFF0E6F
:1036B000B521B16FFF0EB621B26FFF0EB721B36F08
:1036C000AC51B05DAD51B159AE51B259AF51B359D2
:1036D0000DE30101644B652B330E645D000E6559EB
:1036E00025E3646B656B0001946B20D00101646B72
:1036F000656B1CD027D8B451AC5DB551AD59B651EE
:10370000AE59B751AF59F2E3210EA35D4E0EA45945
:10371000EDE20101644B652B1F0E645D000E6559DF
:1037200005E3646B656B010E0001946F0001955118
:1037300003E0648164931200945101E157D76483DC
:1037400064911200A351AC6FA451AD6FAE6BAF6B1F
:1037500012000001B66BB76BAE6BAF6BB06BB16BA9
:10376000B86BB96BB86BB96B00F000F000F000F00B
:1037700000F000F000F000F00001B84BB92B320E61
:10378000B85D000EB959F0E3010EB36F8D0EB26F44
:10379000010EB56FB60EB46F290EB76F280EB9ECD7
:1037A00027F0EF0A39E1BA6B0BD0BA51B9EC27F028
:1037B000B66F61D8B6C0DFFF65D8B6C0DFFFBA2BE1
:1037C000B751BA5DF2E3BA6B00F000F000F000F020
:1037D00000F00001BA51AE0FD96EDA6ABA511A0F71
:1037E000B9EC27F0DF6EBA2B030EBA65EDD7AE51F8
:1037F000410A09E1AF51500A06E1B051500A03E114
:10380000B1514E0A33E0410E010143D8300ED06F62
:10381000D16FD26FD36F2AD0BA6B05D02CD8DF6AA4
:1038200031D8DF6ABA2BB751BA5DF8E3010E010156
:10383000906F130E8F6F050E926FAA0E916F410E4F
:1038400028D8946BB40E936F010E966F400E956F4F
:103850000F0E986F6E0E976F1B0E9A6F8A0E996FF0
:103860009B6B9C6B010EB46FEF0EB56F91C1F4F0C2
:1038700092C1F5F01200BA51B225D96E000EB321F3
:10388000DA6E1200BA51B425D96E000EB521DA6E87
:103890001200A76F500EA86FA96F4E0EAA6F4E0CA4
:1038A00010C0D9FF11C0DAFF000EDF6E60AE16D077
:1038B000F10E6F16010E156E779071AE07D010C025
:1038C000D9FF11C0DAFF000EDB86719E60A426D0FE
:1038D00060CF12F073D8010EDF1620D00F0130AF89
:1038E000000CF10E6F160A0E6F12156A779271AC0A
:1038F00007D010C0D9FF11C0DAFF000EDB86719C23
:1039000030CF12F05BD8DF50126E020E125C06E26E
:1039100010C0D9FF11C0DAFF000EDB8E65500F0B0F
:103920000EC0D9FF0FC0DAFFDF6E65AC06D010C045
:10393000D9FF11C0DAFF000EDB8C62A60CD010C0DC
:10394000D9FF11C0DAFF000EDB8A45D8F70E056EED
:10395000F4EC1CF005D03FD8FF0E0568F4EC1CF029
:103960000F0E146E660E136E166A0FD016501324C7
:10397000D96E000E1420DA6E16500C24E16E000E83
:103980000D20E26EDFCFE7FF162A0EC0D9FF0FC071
:10399000DAFFDF50165CEAE3F10E6F1677AE07D060
:1039A00010C0D9FF11C0DAFF000EDB88779E1550DA
:1039B00002E0609E010C0F01309F010C070E1216F1
:1039C00010C0D9FF11C0DAFF1250DF1210C0D9FFAA
:1039D00011C0DAFF12000F0E026E610E016E0AC0F6
:1039E00003F00BC004F0610C03C008F004C009F040
:1039F00005A638D001C0D9FF02C0DAFFDF50066E3D
:103A0000D8900636D8900636D890063408C0D9FF2C
:103A100009C0DAFFDF6E20EE01F064D8050E076EF4
:103A2000D8900632072EFCD7065067D8050E076ED1
:103A3000D8900632072EFCD708C0D9FF09C0DAFF9C
:103A40000650DF1220EE02F00850D9260950DA2283
:103A5000DF6A20EE03F00850D9260950DA22000E62
:103A6000DF6E000C20EE02F03DD8050E076ED890F8
:103A70000636072EFCD70650DF6E20EE03F032D854
:103A8000D8900632D8900632D890063036D8030E39
:103A90003ED801C0D9FF02C0DAFFDF50066ED890D1
:103AA0000632D8900632D89006321C0E30D8014A21
:103AB000022A01C0D9FF02C0DAFF10EE01F008505F
:103AC000E1260950E222DFCFE7FF014A022A01C0C6
:103AD000D9FF02C0DAFF08C0E1FF09C0E2FFDFCF73
:103AE000E7FF12000850D9260950DA2201C0E1FF91
:103AF00002C0E2FFE750066E1200DF6E014A022AA2
:103B000001C0D9FF02C0DAFFDF50066E12000616B0
:103B100020EE02F00850D9260950DA220650DF12B2
:103B20001200B56BB86BB96BB66BB76BB16BB26BA0
:103B3000B36BB46BACC0B8F0ADC0B9F0B8C0D9FFCE
:103B4000B9C0DAFFDF50EF0A08E0B8C0D9FFB9C04A
:103B5000DAFFDF50550AD8A41200BA6B09D0BA5167
:103B6000B825D96E000EB921DA6EDF50B51BBA2B1D
:103B7000AE51BA5DF4E3B551D8A4120020EE01F0C5
:103B8000B851D926B951DA22DF50AF6F20EE02F0DA
:103B9000B851D926B951DA22DF50B26FAF51B16FA7
:103BA00020EE05F0B851D926B951DA22DF50B36FB3
:103BB000B46BB8C0D9FFB9C0DAFFDF50550A0CE0CA
:103BC000200EB15D4E0EB259D8B01200F00EB35DAA
:103BD000000EB459D8B01200550EB8C0D9FFB9C004
:103BE000DAFFDF620DD0010E0001B76FF90EB66F7C
:103BF000BA6B14D8020EBA65FCD7010E6E6F09D0ED
:103C0000000EB76FA30EB66FBA6B08D8080EBA6570
:103C1000FCD7A5C03AF1A6C03BF11200BA51B825B5
:103C2000AF6FE86ABABFE868B921B06FAF29D96E43
:103C3000000EB021DA6EBA51B625E16E000EB72142
:103C4000E26EDFCFE7FFBA2B1200AE0EB56FB2A760
:103C500022D0B551D96EDA6ADF50B36FD890B33342
:103C6000D890B333D890B33162D8D92ADA6A72D8EF
:103C7000D890B337B42FFCD7ACC0D9FF46D86AD898
:103C8000D890B337B42FFCD7B351ACC0D9FFADC077
:103C9000DAFFDF6E1200B55142D8050EB46FD8902E
:103CA000B333B42FFCD7B35142D8030E49D8B3373E
:103CB000ACC0D9FF2AD8020E43D8B335E00BACC054
:103CC000D9FFADC0DAFFDF6EACC0D9FFADC0DAFFFF
:103CD000000EDB86B55123D8030EB317ACC0D9FF55
:103CE00014D8D92ADA6AACC0E1FFADC0E2FFDFCF59
:103CF000E7FFAC4BAD2BB551D96EDA6AACC0E1FF32
:103D0000ADC0E2FFDFCFE7FF1200ADC0DAFFB35175
:103D1000DF12AC4BAD2BB551D96EDA6A1200D96EF9
:103D2000DA6A020ED926DA6ADF50B36F1200ACC02D
:103D3000D9FFADC0DAFFDF6EB551D96EDA6A120075
:103D4000D926DA6ADF50B36FD890B337D890B3373B
:103D5000D8901200DF50B36F050EB46F050C000150
:103D6000766B756BF6AF06D001013E6B3F6B3C6B1B
:103D70003D6B1200F6A304D0690E756FB00E76137A
:103D800001013E4B3F2B650E3E5D000E3F5903E2A5
:103D90003C6B3D6B1200030E3F6FE90E3E6FD00E81
:103DA000975D070E985909E33E2A640E3E6409D0D8
:103DB000650E3E6E0001768104D03E6601D001D0D2
:103DC0003E06000164A764B908D064A564B305D0B9
:103DD00064A165B902D065A73BD001013C4B3D2BE6
:103DE000C90E3C5D000E3D5909E2000165A703D0F4
:103DF000A00E7613A00C000176831200050E3D6F15
:103E0000DD0E3C6F000164A704D0A00E7613010EF6
:103E1000756F64A504D0A00E7613680E756F64A349
:103E200004D0B00E7613650E756F64A104D0B00E89
:103E30007613660E756F64A904D0A00E7613020E79
:103E4000756F65A91200B00E7613670E756F670C5B
:103E500001013C6B3D6BCFD70F0120B708D0F10EAD
:103E60006F166F860F0E0001C26F200E14D010B7B0
:103E700009D0F10E6F16060E6F120F0E0001C26F01
:103E8000100E09D000B7000CF10E6F166F840F0EE4
:103E90000001C26F000E0001C16FBD51030BC1C014
:103EA000D9FFC2C0DAFFDF6EBDB707D0C12942D843
:103EB000F70EB26F25EC1EF006D0C1293BD8FF0EDD
:103EC000B26925EC1EF020EE05F0C151D926C25191
:103ED000DA22BCC0DFFFBDBD08D020EE05F0C15125
:103EE000D926C251DA22000EDB8C060EC125BE6F28
:103EF000000EC221BF6FC06B0FD0C051BA25D96E62
:103F0000000EBB21DA6EC051BE25E16E000EBF214E
:103F1000E26EDFCFE7FFC02BBC51C05DEEE30F01C7
:103F20002087C1C0D9FFC2C0DAFF000EDB86F10EC8
:103F30006F16010CAC6F000EC221AD6FB6C0AEF0B3
:103F4000B7C0AFF0B8C0B0F0B9C0B1F01200056AA8
:103F5000066A076A3D500D0D000EF324036E046AD5
:103F6000020E042232D0C282010E836F34D0C2B25C
:103F70001200C450F00BF00A03E1056A066A05D08E
:103F8000C4500F0B066EC350056E20EE01F00350B7
:103F9000D9260450DA220550DE260650DD223D2ABD
:103FA000050E3D6401D03D6A3D500D0D000EF32419
:103FB000D96EDA6A020EDA22DF50076E0750010965
:103FC000C26E0001842B836B06D000018351CBE0CD
:103FD000010ACDE0F8D75F0E84655F0C846B010E9B
:103FE000726F086A08500D0DF3CF01F0012A02012B
:103FF0001DD808500D0DF3CF02F0030E0226000E5F
:104000000224E16EE26A020EE222DECFE6FFDDCF9D
:10401000E5FF08500D0DF3CF01F0012A07D8DE6A45
:10402000DD6A082A050E0864DDD7050C000E0124A0
:10403000D96EDA6A020EDA221200949C948E020E75
:104040000101286F480E296F400E2A6F0C0E2B6F4E
:10405000480E2C6F020E2D6F410E2E6F180E2F6F13
:10406000880E246F100E256F660E266F170E276FB1
:10407000100E0001606F880E616F660E626F170E82
:10408000636F800E14EC28F0070E0E01436F900E44
:10409000446F020E456F0F01206B106B006B000127
:1040A000B669B769B869B969F70EBA6F000EC6ECA0
:1040B00026F028C1B6F029C1B7F02AC1B8F02BC14B
:1040C000B9F0F70EBA6F000EFFEC24F0040E606E2C
:1040D000F00EB66FB769B869B969F70EBA6F010E1D
:1040E000C6EC26F024C1B6F025C1B7F026C1B8F061
:1040F00027C1B9F0F70EBA6F020EFFEC24F0020EE2
:104100000F01306F000E14EC28F00E01426B416B72
:10411000716A776A7790768076821200240E0201A7
:10412000095D000E0A5906E3C90E0001A35D000EE9
:10413000A45912E2040E00016B650CD00101326B30
:10414000336B346B356B306B316B00016A6B706BAA
:10415000F68F12006B2B05D06B6702D0F69F01D053
:104160006B070101324B332B660E325D000E335963
:10417000D8A01200336B650E326F00016A0518E19A
:10418000280E0201305D000E31590EE30101344B5F
:10419000352B910E345D010E35591EE3346B356BB2
:1041A00000016A6BF69D18D00101346B356B14D099
:1041B000150E0201305D000E3159F6E20101344B5B
:1041C000352B910E345D010E355906E3346B356B9A
:1041D000010E00016A6FF68D0101304B312B220E6A
:1041E000305D030E315903E20001706B1200030EC3
:1041F000316F210E306F010E0001706F010C000154
:10420000AC6BAE6BAF6B100E822B826101D0000CD9
:10421000826B010E0001AF6FF40EAE6FAEC0D9FF1E
:10422000AFC0DAFFEF0EDF6E74051FE1F86702D052
:10423000746B01D0F80720EE01F0AE51D926AF51D2
:10424000DA2273C0DFFF20EE02F0AE51D926AF5163
:10425000DA2238C1DFFF000120EE03F0AE51D9268B
:10426000AF51DA220101395117D0030EF86F20EE59
:1042700001F0AE51D926AF51DA22DF6A20EE02F00A
:10428000AE51D926AF51DA22DF6A20EE03F0AE51EB
:10429000D926AF51DA22000EDF6E010E0001AF6F9A
:1042A000F40EAE6FAD6BAEC0D9FFAFC0DAFFDF501A
:1042B000AC1BAE4BAF2BAD2B030EAD65F4D7AEC030
:1042C000D9FFAFC0DAFFACC0DFFF050C0001F6BFBD
:1042D000120083AA0BD00101746B756B130E8C65F1
:1042E00003D0010E8B6F0DD08C2B0BD001018C6B8A
:1042F000640E745D000E755902E38B6B02D0744B33
:10430000752B724B732BCA0E0101725D000E73592F
:10431000D8A01200736BC90E726F8B0507E0000105
:10432000F6B102D0F6A302D0F6AB03D0000165854A
:1043300003D065950101026B0101000503E0000156
:10434000F6A909D0000165A506D001010F6703D0C9
:10435000010E026F02D00101026B0351021904E049
:1043600002C103F1010E116F03050BE1896B8A2B6A
:10437000030E01018A65030C040E8A6F010E086F9B
:10438000010C8A6B892B030E01018965030C040E55
:10439000896F086B120000016C6B0101364B372BE3
:1043A000D20E365D070E375905E3070E376FD10E73
:1043B000366FD10C83A408D0796B782B310E7865D9
:1043C0000AD000016C8107D0792B786B310E7965AA
:1043D00002D000016C9183A609D001017B6B7A2B7E
:1043E000310E7A650BD000016C8308D001017B2B64
:1043F0007A6B310E7B6502D000016C9382A809D0E4
:1044000001017D6B7C2B310E7C650BD000016C852E
:1044100008D001017D2B7C6B310E7D6502D000013F
:104420006C9583A209D001017F6B7E2B310E7E65D6
:104430000BD000016C8708D001017F2B7E6B310E01
:104440007F6502D000016C976CC015F115C11AF19F
:10445000010E0101156F15C11AF1010C32EC28F0A3
:10446000A7EC26F0EDEC27F0A9EC1BF003EC27F00D
:104470001DEC20F0E5EC26F009EC28F0FCEC27F030
:104480001FEC28F000017E51FDE07E6B04003EEC45
:1044900023F00EEC26F085EC0DF0D4EC0FF0CBEC15
:1044A00021F022D078EC25F033D066EC21F030D02A
:1044B00070EC24F02DD045EC0AF02AD0D0EC11F0AD
:1044C00029EC28F025D08EEC22F022D091EC23F0BC
:1044D0008DEC27F01DD0AFEC25F01AD0AFEC1EF01C
:1044E00017D0DDEC23F014D03550DCE0010ADDE01C
:1044F000030ADEE0010ADFE0070AE0E0010AE3E088
:10450000030AE4E0010AE7E00F0AE8E0010AE9E053
:10451000352A090E3564B6D7356AB4D70001B16BB8
:104520003B50D8A41200010EAE6F8D0EAD6F010E80
:10453000B06FB60EAF6F290EB16F800518E1806BBA
:104540000101466B476B00018E671200B26B0AD007
:1045500038D8B251AF25E16E000EB021E26EDFCF48
:10456000E7FFB22BB151B25DD8B01200F1D7B26BF8
:1045700023D0B251AF25D96E000EB021DA6EDF50D4
:10458000AC6F1FD8DF50AC1916E08E6B0101464BA3
:10459000472BEA0E465D030E4759D8A01200466B22
:1045A000476B010E3B6E010E2A6E8D0E296E3A6A24
:1045B000B1C081F01200B22BB151B25DD8B012007F
:1045C000D8D7B251AD25D96E000EAE21DA6E1200E9
:1045D00060BE06D00F0130AF77B002D077A21200D4
:1045E000040E336401D0336E33500F0DF3CF17F048
:1045F000172A02014E0E17241E6E1F6A020E1F227A
:1046000033500F0D4E0EF324186E196A020E192244
:1046100033500F0DF3CF17F0050E17264E0E17244B
:104620001A6E1B6A020E1B2233500F0DF3CF17F0C8
:104630000D0E17264E0E17241C6E1D6A020E1D222B
:104640001EC00AF01FC00BF01AC00CF01BC00DF00A
:1046500018C00EF019C00FF01CC010F01DC011F0F2
:1046600050EC1CF0206E200402E1332A1200609E00
:104670000F01309F77907792779E12003B6642D071
:1046800012000001906B3B2A120029C0D9FF2AC0FA
:10469000DAFFDF500001AE6F3A50B9EC27F0AE19E7
:1046A000F2E1050E3B6E050C0001902B030E9065A8
:1046B00001D0F7D73A50200F746E29C0D9FF2AC015
:1046C000DAFFDF50736E7F9E7F9C7F84F29E550ED3
:1046D0007E6EAA0E7E6E7F82F28E7F94D4D77FB2DA
:1046E00012007F94020E3B6E020C3A2A294A2A2AB3
:1046F0000001812F04D03B6A010E806F010C010E76
:104700003B6E010C3B50D8B41200010ABAE0030A18
:10471000BCE0010AC9E0070AE2E0010AD8A41200DD
:10472000E4D7000165A964B102D064A304D0010EEE
:104730000101866F010CF6B137D0010187670DD0FA
:104740008A800001962B020E9665020C010E010173
:10475000876F0001966B8A901200000165A164B713
:1047600008D00101860505E0000164B502D064A906
:1047700016D00101684B692B590E685D020E69590C
:10478000D8A012008A800001962B020E9665020CBA
:104790008A906499649764950101866B08D0966B42
:1047A0000101686B696B12000101876B00D0000189
:1047B000966B0101686B696B12000001AC6B9E0582
:1047C0002AE10101764B772B320E765D000E775988
:1047D000D8A012000001648BA30EAC6FAD6BAC517E
:1047E000AD25D96EDA6ADF6A01013A6B3B6B0001D5
:1047F000AD2B080EAD65F3D70101766B776B000129
:104800009E6B9D2B030E9D65030C9D6BA69EEDEC90
:1048100027F0A38812000101764B772BC80E765D36
:10482000000E7759D8A01200766B776B00017C6779
:1048300008D09C2B020E9C65020C9C6B010E9E6F97
:10484000010C649B9C6B9D6B9E6B7C6B1200C90E74
:104850000001A35D000EA45906E201016A6B6B6BB7
:104860006C6B6D6B120001016A4B6B2B590E6A5D0C
:10487000020E6B59D8A01200020E6B6F590E6A6FB0
:10488000000165A706D001016C6B6D6B6A6B6B6BE9
:1048900012007151D8B412006F51D8B41200020145
:1048A00040513F11D8B4120093C1ACF094C1ADF0A7
:1048B0003F510001AC5D020140510001AD590CE3D4
:1048C00001016C4B6D2B590E6C5D020E6D59D8A019
:1048D000120000016485120001016C6B6D6B120007
:1048E0000101444B452B580E445D020E4559D8A09A
:1048F0001200446B456B0001776708D08D2B060EC4
:104900008D6501D08D6BF683F69103D08D6B776B3F
:10491000F6930101055104110DE100018B2B010EED
:104920008B650CD0050E8B6F0101006B0B6B0C6B54
:104930000F6B04D0046B056B00018B6B01010751F9
:1049400006110DE100018C2B010E8C650CD0050EBB
:104950008C6F0101016B0D6B0E6B106B04D0066B3D
:10496000076B00018C6B00017851D8A4786B1200A2
:104970000001F6AF03D0649D649F120020EEA7F003
:104980008B0EDF640CD0C80E01016E5D000E6F59F6
:1049900003E30001648D10D06E4B6F2B0DD08C0E95
:1049A000A7610AD001016F516E1103E10001649DFE
:1049B00003D06E07D8A06F07820E02014A5D000E79
:1049C0004B590CE3C80E0101705D000E715903E3F1
:1049D0000001648F1200704B712B1200820E4A5D31
:1049E000000E4B59D8B0120001017151701103E152
:1049F0000001649F12007007D8A071071200E8CF71
:104A0000BBF020D00E0E0001BD6FE00E18D00E0ED0
:104A10000001BD6FE40E13D00E0E0001BD6FE80E55
:104A20000ED00E0E0001BD6FEC0E09D00E0E00016F
:104A3000BD6FF00E04D00E0E0001BD6FF40E00012C
:104A4000BC6F0BD0BB51DEE0010AE1E0030AE4E0F9
:104A5000010AE7E0070AEAE0EED7BCC0ACF0BDC04F
:104A6000ADF0B6C0AEF0B7C0AFF0B8C0B0F0B9C0EE
:104A7000B1F0BAC0B2F025EF1EF0C06BC16BC26BD3
:104A8000C36BBF51BC11BD11BE1129E0010EC46F33
:104A900006D0D890BC37BD37BE37BF37C42BBFAFA9
:104AA000F8D7D890C037C137C237C337BC51B85DCB
:104AB000BD51B959BE51BA59BF51BB5909E3BC5197
:104AC000B85FBD51B95BBE51BA5BBF51BB5BC08122
:104AD000D890BF33BE33BD33BC33C42FE2D7C0C080
:104AE000B8F0C1C0B9F0C2C0BAF0C3C0BBF0120088
:104AF0002ED03CA01200395005E07F6B986B010E60
:104B0000996F010C982B060E00019865060C986BA6
:104B10003C901200080E396005D07F2B030E000177
:104B20007F65030C7F6B3C90020E996F020C010EA7
:104B30000001AD6FDF0EAC6F39C0AEF091EC1DF02F
:104B4000396A996B7C2B1200996B7F6B1200000104
:104B50009951CFE0010ADEE0030AE9E0F5D729D058
:104B60003CB01200FFEC20F00009D8B41200010E96
:104B70009B6F010CA3A8A6AE11D0386A050E376E44
:104B8000F40E3824D96EDA6A010EDA22DF50796E1B
:104B9000382A3706A388030E00019B6F375005E0C3
:104BA0009A2B500E00019A65500C9A6B3C809B6BBF
:104BB000120000019B51D4E0010ADCE0020AEEE0A1
:104BC000F6D702EE00F0990EEE6AE806FDE101EE7E
:104BD00000F0FC0EEE6AE806FDE100EE60F04C0E1F
:104BE000EE6AE806FDE100EE27F01C0EEE6AE8062C
:104BF000FDE15E0EF66E500EF76E000EF86E00EEE2
:104C0000F4F010EE06F00900F5CFEEFFE550E150AC
:104C1000FAE1000EF86E00012EEF22F03FEC27F0D3
:104C20008EEC20F012D0CCEC27F01BD021EC27F03A
:104C300018D0E1EC1AF015D027EC24F012D0B8EC23
:104C400024F00FD034EC28F00CD04250ECE0010AF4
:104C5000EDE0030AEEE0010AEFE0070AF0E0010AE6
:104C6000F1E0422A090E4264090C426A1200B46B58
:104C7000B56BB66BB76BACA108D0B051B427B151CE
:104C8000B523B251B623B351B723D890B037B1375B
:104C9000B237B337D890AF33AE33AD33AC33AF5157
:104CA000AC11AD11AE11E7E1B4C0ACF0B5C0ADF0E0
:104CB000B6C0AEF0B7C0AFF01200B16BB26BAF517F
:104CC000AE111BE0010EB06F04D0D890AE37AF37F5
:104CD000B02BAFAFFAD7D890B137B237AE51AC5D89
:104CE000AF51AD5905E3AE51AC5FAF51AD5BB18192
:104CF000D890AF33AE33B02FEED7B1C0ACF0B2C066
:104D0000ADF01200B8C0D9FFB9C0DAFFDECFACF009
:104D1000DECFADF0DECFAEF0DECFAFF0BAC0B0F098
:104D2000BBC0B1F0BCC0B2F0BDC0B3F037EC26F0F0
:104D3000B8C0D9FFB9C0DAFFACC0DEFFADC0DEFF3E
:104D4000AEC0DEFFAFC0DDFFD906D9061200896A0A
:104D50008A6A8B6A8C6A8D6A92681C0E936E980EB2
:104D6000946EAF0E956E010E966E806A816A826AAD
:104D7000836A846AC26AC16AA50EC06E3F0E0F01C3
:104D80005D6F5C6B010EC26E9E9C010CE8CFBBF0A8
:104D9000BB6705D00E0E0001BD6FF80E04D00E0EDD
:104DA0000001BD6FFC0E0001BC6FBCC0ACF0BDC00B
:104DB000ADF0B6C0AEF0B7C0AFF0B8C0B0F0B9C09B
:104DC000B1F0BAC0B2F025EF1EF0020E0001AD6FD7
:104DD000000EAC6FAE6BACC0D9FFADC0DAFFDF6ABE
:104DE000AC4BAD2BAE2B050EAE65F5D70201006BBB
:104DF000040E0D6F0C0E1A6F100E276F140E346F09
:104E0000080E416F080CCA80CA92C70ECB6E0C0EFA
:104E1000BB6E010E9C6E0C0E0F01506F476F996AAE
:104E2000C80EBC6E516BC80E486FBB50CF0B30091B
:104E3000BB6ECF0E50174751CF0B3009476FCA8456
:104E40001200330E0101802B806101D0330C330E30
:104E5000806F83A009D0816B090E0001936502D099
:104E60006583090C932B12000001936B090E01015D
:104E7000816503D000016593090C812B12000001AC
:104E8000AC6BAD6B3FC2ACF040C2ADF001019551CF
:104E90000001AC5D010196510001AD5909E3020E1C
:104EA0000101886503D000016487020C882B120081
:104EB0000101886B1200A650060B06E07A50A698F6
:104EC00000F000F0A6881200DF0E3924D96EDA6AED
:104ED000010EDA227ACFDFFF392A0C0E396401D0B5
:104EE000396E00017F6B12000101604B612BD10E06
:104EF000605D070E6159D8A01200070E616FD20ED7
:104F0000606F81A808D0090E836503D00001648911
:104F1000090C832B1200836B12000101D051420A4D
:104F200011E1D151540A0EE1D251440A0BE1D3519F
:104F30004C0A08E100019F2B640E9F65640C9F6B77
:104F4000FF00120000019F6B1200C90E0001A35D5B
:104F5000000EA45903E20101846B120081A6FBD765
:104F6000090E0101846503D000016487090C842BBC
:104F70001200E8CFACF0AC51200F746E7F9C7F9E86
:104F8000F29E7F8000F000F000F000F073CFADF0F3
:104F9000F28E0001AD51120081A408D0090E00016B
:104FA000976502D06581090C972B12000001976765
:104FB00002D0659112009707120037500CE00101F2
:104FC000F40E3824D96EDA6A010EDA22DF50796ED7
:104FD000382A37061200A3981200959C958E9F0ED2
:104FE0007B6E010E7C6EB986BA94BA98A68EA39891
:104FF000BA8AA688A38A010C040ECD6EFC0ECF6E71
:105000007B0ECE6ED1809E909D80F28CF28ECD80F4
:105010007B0C160E01011F6F0A0E206F190E216FF7
:10502000226B400E236F400CE8CFACF0ACC06FFF9A
:105030006E50E00B0001AC19D8B41200F9D7086B20
:10504000026B036B006B016B126B136B146B8B9217
:105050001200B7EC16F04AEC19F018EF1AF0AA0596
:0A506000020003149B8C12001200E2
:00000001FF
